:020000040000FA
:020000000528D1
:040002000034003492
:020008001628B8
:06000A008316F0308600B1
:1000100000308500BF30810083120330850000303E
:1000200086000B108B170B16000014280B1C3728AA
:10003000A200030EA3000608A700A606261A23287E
:10004000A61B28282C28061A2C28023085062C28C6
:10005000861B31280130850639200608903903199E
:100060002C282708A600230E0308A20E220E0B1030
:1000700009000630A400A40B3B280800C830A000EB
:0C008000A100A10B4128A00B40280800A3
:02400E00D220BE
:02401000FF3E71
:00000001FF
