:020000040000FA
:020000000528D1
:040002000034003492
:020008002228AC
:06000A000313BF3081006A
:10001000FF30850001308600161403178601061490
:1000200003178312871388138316003089008B10FF
:100030008B178B1503308000023086063D20800B25
:100040001E281A288B1C36288500030E860083166E
:10005000061832280A30840006183228840B2C280F
:1000600002308606060E0308850E050E8B10090069
:1000700004308300830B3A280800C83081008200D6
:0A008000820B4028810B3F28080086
:02400E00D720B9
:02401000FF3E71
:00000001FF
