:020000040000FA
:02000000030AF1
:0400020000080008EA
:0A000600DF0C0200FB0C06002009CD
:100010002C0920092C0920093809440950095C09D8
:100020005C095C09680974095C09380938093809F0
:100030007409800938095009500950090300070A5A
:10004000FF0C3200040CA601FB0C3000010C310047
:100050008C09F202220A0008F00C3200040CA601FE
:100060000A0C3000020C31008C09F2022E0A000842
:10007000BF0C3200040CA601500C3000020C310001
:100080008C09F2023A0A0008E30C3200040CA601C3
:100090001A0C3000020C31008C09F202460A0008EA
:1000A000CA0C3200040CA6013D0C3000020C3100D9
:1000B0008C09F202520A0008AA0C3200040CA601B4
:1000C000790C3000020C31008C09F2025E0A000843
:1000D000650C3200040CA6017B0C3000030C3100CF
:1000E0008C09F2026A0A00087F0C3200040CA60197
:1000F000F80C3000020C31008C09F202760A00087C
:10010000A00C3200040CA601900C3000020C31004F
:100110008C09F202820A0008F0028C0AF1028C0AB1
:020120000008D5
:021FFE00FB0FD7
:00000001FF
