:040000008A11112828
:10000800FE00030E83120313A1000408A2000A08CD
:10001800A3007F08A4008A1118288A111328A601B2
:10002800A70183018A115D288B1A0B1D2D2810301A
:1000380026062704031D24288A1146208A112C2805
:10004800013083120313A6070318A70A0030A70775
:100058000B11831203132408FF0023088A002208C7
:100068008400210E8300FE0E7E0E09008312031306
:100078000708A500250787000708031D08000130A9
:1000880087000800831203130708A00020078700D1
:100098000708031D08000130870008008630831612
:1000A800031381008B170B178B168312031381011F
:1000B80008008A1167208A118A1152208A118A1130
:1000C8003A208A1163280730831603139C008501A0
:0800D8008312031385010800E7
:02400E0072FF3F
:00000001FF
