:060000000A128A11F82F1C
:100814008312031307168712071387171530F20084
:100824004B30F100D130F000F00B162CF10B162CEC
:10083400F20B162C00000800FD01F91F282CF80902
:10084400F909F80A0319F90AFD01FD0A7808F0000C
:100854007908F100F2018E30FB007B08F3007D087B
:10086400FC007C08F4000A128A1196247008F8002F
:100874007108F9007208FA000800831203138F014B
:100884008E0186140D30CE00CE0B462C831203133A
:100894008610061D4B2C101406194E2C10100F0830
:1008A400D5000E08D4005508F9005408F8000A12BF
:1008B4008A111E240A128A11780883120313A300D2
:1008C4007908A4007A08A500D330A000DE30A10086
:1008D4003C30A2000A128A1148260A128A11831295
:1008E40003132008B3002108B4002208B500003027
:1008F400B0000030B1004030B2000A128A119025D5
:100904000A128A11831203133008C0003108C1008F
:100914003208C2000A128A11022583120313410805
:10092400D3004008D2000800730803199E2C7208F3
:1009340071047004031DB12C0030F0000030F1008C
:100944000030F20008000130F5007508F3070130AB
:100954000310F20CF10CF00CFF3E031DAA2CFE3028
:1009640072050319CC2CA52C0130F5007508F3078A
:100974000130F007003003180130F107003003188C
:100984000130F20701300310F20CF10CF00CFF3EC1
:10099400031DC52CFF3072050319DB2CB62C013066
:1009A400F30201300310F00DF10DF20DFF3E031DB3
:1009B400D42CF11BE12C023073020318D12C7318D0
:1009C400E92CFF30F0057F30F105FF30F20503100C
:1009D400F30C7308F500F601F70110300310F50D60
:1009E400F60DF70DFF3E031DF02C7508F004760894
:1009F400F1047708F204740803190800F2170800D8
:100A0400831203134008C4004108C5004208C6000D
:100A14000310450D460DC7004708CD004D08031DC2
:100A24001C2D0030C3000030C2000030C100003073
:100A3400C00008004008C4004108C5004208C600C0
:100A440017300310C60CC50CC40CFF3E031D232D28
:100A54004408C7004708C800C117FF30C005FF306D
:100A6400C1050030C2054008C9004108CA00420857
:100A7400CB00CC018E30CD02CD1F5E2D4D08803AC7
:100A84008F3E03184E2D0030C3000030C2000030EA
:100A9400C1000030C000080001300310CC0CCB0CA6
:100AA400CA0CC90CFF3E031D4F2D0130C40044087D
:100AB400CD070319792D4E2D18304D02031C762DC8
:100AC4000030C3000030C2000030C1000030C0005C
:100AD40008000130C4000310C90DCA0DCB0DCC0DA4
:100AE400C40B6D2D0130CD024D08031D6B2D48083C
:100AF4000319872DC909CA09CB09CC09C90A0319E5
:100B0400CA0A0319CB0A0319CC0A4C08C3004B08C0
:100B1400C2004A08C1004908C00008008312031338
:100B24003308B6003408B7003508B8000310370D91
:100B3400380DB9003908BE003E08031DA82D003049
:100B4400B0000030B1000030B20008003008B60038
:100B54003108B7003208B8000310370D380DB9005A
:100B64003908BF003F08031DBE2D0030B00000301F
:100B7400B1000030B20008000030BB000030BC00FF
:100B84000030BD0089303F07B6003608BE02330886
:100B9400B6003408B7003508B80010300310B80C9C
:100BA400B70CB60CFF3E031DD02D3608B90039082A
:100BB400BF003008B6003108B7003208B800103062
:100BC4000310B80CB70CB60CFF3E031DE22D36081B
:100BD400B9003908BF068030B6003608BF05B4171F
:100BE400FF30B305FF30B4050030B505B117FF3051
:100BF400B005FF30B1050030B2051830B600360834
:100C0400BA0001300310BB0DBC0DBD0DFF3E031D2A
:100C1400042E32083502031D152E31083402031D3B
:100C2400152E30083302031C222E3008B30231087B
:100C3400031C310FB4023208031C320AB5023B1400
:100C440001300310B30DB40DB50DFF3E031D232E6B
:100C54000130BA02031D032E3B08F0003C08F100EA
:100C64003D08F2003E08B6003608F3003F08B7001E
:100C74003708F4000A128A119624700883120313A9
:100C8400B0007108B1007208B200080083120313A7
:100C94002008A6002108A7002208A8000310270D99
:100CA400280DA9002908AA002A08031D602E003077
:100CB400A0000030A1000030A20008002308A60014
:100CC4002408A7002508A8000310270D280DA90053
:100CD4002908AF002F08031D762E0030A000003035
:100CE400A1000030A20008002F087B3EA6002608C1
:100CF400AA072008A6002108A7002208A80010308F
:100D04000310A80CA70CA60CFF3E031D822E260878
:100D1400A9002908AF002308A6002408A700250875
:100D2400A80010300310A80CA70CA60CFF3E031D4E
:100D3400942E2608A9002908AF068030A6002608AC
:100D4400AF05A117A417FF30A305FF30A405003099
:100D5400A5050030AB000030AC000030AD0007301A
:100D6400A6002608AE00201CC52E2308AB072408C5
:100D740003110318240A031DAC07250803110318E3
:100D8400250A031DAD0701300310A20CA10CA00C11
:100D9400FF3E031DC62E01300310A30DA40DA50DA7
:100DA400FF3E031DCE2E0130AE02031DB52E0930C9
:100DB400A6002608AE00201CED2E2308AB0724084D
:100DC40003110318240A031DAC0725080311031893
:100DD400250A031DAD0701300310A20CA10CA00CC1
:100DE400FF3E031DEE2E01300310AD0CAC0CAB0C1A
:100DF400FF3E031DF62E0130AE02031DDD2E2B082F
:100E0400F0002C08F1002D08F2002A08A60026089C
:100E1400F3002F08A7002708F4000A128A11962469
:100E2400700883120313A0007108A1007208A200C5
:100E34000800831603138801861006158611081509
:100E440088150712871207138713203083120313A0
:100E540090000A128A113F240A128A118312031382
:100E64005308803AFF0080307F02031D3B2F063079
:100E74005202031C432F831203130712871607170A
:100E840087130A128A113F240A128A118312031348
:100E9400081D881D702F5308803AFF0080307F02A0
:100EA400031D562F063052020318702F0A128A119E
:100EB4000A240A128A1183120313071687160717C6
:100EC40087130B30D1002630D0006630CF00CF0B13
:100ED400692FD00B692FD10B692F702F0A128A1139
:100EE4003F240A128A1183120313081988199D2FAB
:100EF4005308803AFF0080307F02031D832F0630A1
:100F0400520203189D2F0A128A110A240A128A1106
:100F14008312031307128716071787170B30D100A4
:100F24002630D0006630CF00CF0B962FD00B962FF3
:100F3400D10B962F9D2F0A128A113F240A128A116F
:100F440083120313081D8819CA2F5308803AFF001F
:100F540080307F02031DB02F063052020318CA2FBF
:100F64000A128A110A240A128A118312031307121D
:100F74008716071787170B30D1002630D00066304C
:100F8400CF00CF0BC32FD00BC32FD10BC32FCA2F2E
:100F94000A128A113F240A128A11831203130819B0
:100FA400881D2B2F5308803AFF0080307F02031DD9
:100FB400DD2F0630520203182B2F0A128A110A243D
:100FC4000A128A1183120313071687120717871749
:100FD4001530D1004B30D000D130CF00CF0BF02FE3
:100FE400D00BF02FD10BF02F00002B2FD201D30107
:0C0FF400D401D50183010A128A111B2FC1
:02400E00323F3F
:00000001FF
