:060000000A128A11122809
:10000800FE00030EF1000408F2000A08F300831250
:1000180003137F08F4000A128A117B290A128A1135
:100028001528FA010A128A111A220A128A11F600F0
:100038000A128A111B220A128A11F7000A128A115F
:100048001C220A128A11F8000A128A111D22F900CC
:0800580083010A128A11AE298E
:100200000029FF0001308A007F08820706290A12B0
:100210008A11F1290A128A11E22983120313230891
:10022000AB002208AA002108A9002008A8002B087A
:100230002A0429042804031908002008A40021081E
:10024000A5002208A6002308A70002300310A70C6F
:10025000A60CA50CA40CFF3E031D26292708AF0001
:100260002608AE002508AD002408AC002F082E0497
:100270002D042C0403195E290130A4000030A500D0
:100280000030A6000030A7002408AC022508031C9B
:10029000250F4B294C29AD022608031C260F512996
:1002A0005229AE022708031C270F57295829AF02ED
:1002B0002F082E042D042C04031D3C290130A4001A
:1002C0000030A5000030A6000030A7002408A802D6
:1002D0002508031C250F6D296E29A9022608031C79
:1002E000260F73297429AA022708031C270F7929CE
:1002F0001729AB0217298C1EA1291A08F0007008D3
:10030000FA00F501023075020318A1297508F00002
:100310007007763E840000087A06031D99290314AD
:10032000750D763E840000080A128A1101210A1216
:100330008A110130F0007008F50702307502031CC5
:100340008629740883120313FF0073088A00720859
:100350008400710E8300FE0E7E0E09000A128A11BF
:1003600000220A128A110A128A1114220A128A1110
:100370000A128A110B220A128A118312031308141B
:10038000881406150A128A11C8210A128A11C22974
:10039000031083120313061D0314031CD3298312B5
:1003A00003130615D6298312031306110030A30088
:1003B0003D30A2000930A1000030A0000A128A11CD
:1003C0000D210800031083120313081C0314031CDF
:1003D000ED29831203130814080083120313081075
:1003E0000800031083120313881C0314031CFC2948
:1003F0008312031388140800831203138810080063
:10040000203083160313980019309900903083121E
:1004100003139800080083160317880189018316C7
:1004200003138801860108008B170B17831603132B
:0C0430008C1608003134043432340134DE
:04400E00D7FFFFFEDB
:00000001FF
