:020000040000FA
:020000000528D1
:040002000034003492
:020008000900ED
:06000A00831203138301C1
:10001000860183160313003088008316031700300F
:100020008800890083160313F030860000308900B1
:100030000830810083120313D4205230E52044306D
:10004000E5205930E5202D30E5202030E5208801DD
:1000500089018F2078208F20A701A801BA20AD0147
:10006000AB01AE010430AC00FE30AA000F30A90095
:100070002A08A90529088600061E6420861E692014
:10008000061F6E20861F73202B08043EAB0003144E
:10009000AA0DAC0B3628AE0803195E282D08093CC2
:1000A000031C55282D08303E57282D08373EB00038
:1000B000A120C22099203008E5206328EB20AF1F43
:1000C0006328A120C22030282B08003EAD00AE0AD4
:1000D00008002B08013EAD00AE0A08002B08023EC6
:1000E000AD00AE0A08002B08033EAD00AE0A0800C2
:1000F0008910091009118A202830A1202830A12058
:100100000E30A1200630A1201430A1200130A12002
:100110008F2008002A30A000A00B8C2808002A306D
:10012000A1008A20A10B91280800891400008910E1
:100130000800C830A300A400A40B9C28A30B9B2894
:100140000800A500AC20880095202508250EAC20CD
:10015000880095208A200800F039A60008080F3989
:1001600026040800891009108F20C030A12009142E
:100170008F200800891009108F208030A1200914D9
:100180008F200800A70A2708143C031DD32828083D
:10019000013C0319CF28B220A701A80AD328782050
:1001A000A701A801BA20080083160313C0308704F2
:1001B0001930990020309800831603178711831295
:1001C000031390309800B1010800831203130C1E32
:1001D000E72899000800AF01831203138C1E080062
:1001E0009818F8281819FC281A08AF17B101080048
:0E01F0003114181218160800B1141A0808006D
:02400E00E520AB
:02401000FF3E71
:00000001FF
