:020000040000FA
:020000000528D1
:040002000034003492
:020008000900ED
:06000A00831600308600A1
:100010008B018112811101158114011483120030AA
:1000200086008101A101A2014730A3004A2051208E
:100030001628820723343F3447347F34A2341F34D8
:1000400003346734FF347E34BD34DB34E734DB34CF
:10005000BD347E34FF343C3418342434423481348B
:10006000C3340034013402340434083410342034EE
:1000700040348034FF348134833487348F349F3468
:10008000BF34FF347F343F341F340F34073403341C
:100090000134FF34220819208600220A2339A200E5
:1000A00008001A30A0000B1181010B1D5528A00B70
:0400B00053280800C9
:02400E00D220BE
:02401000FF3E71
:00000001FF
