:020000040000FA
:020000000528D1
:040002000034003492
:020008003D2891
:06000A0083120C108F01AF
:100010008E018316F7308500103086000C14831291
:10002000861140308B00213090003C308F00B03082
:100030008E008511A2010F30A301861A20288B178C
:10004000382085193B201D2823080F398207EE34FC
:100050002834CD346D342B346734E7342C34EF340A
:10006000AF34E334C634E934C634E934C7348734B2
:100070002420860008008B010800A100030EA000C8
:100080000C1C4D280C103C308F00B0308E00A20AA2
:1000900005302206A30B4D288515200E8300A10EE6
:0400A000210E090024
:02400E00193F58
:00000001FF
