:020000040000FA
:020000000528D1
:040002000034003492
:020008002C28A2
:06000A0083168030860021
:100010008B018312003086008B178B158610061417
:100020000230A4001E20A40B1228162806108614E5
:100030000230A4001E20A40B1A280E28FA30A200B9
:10004000FA30FA30A3000230A500A50B2528A30B37
:100050002328A20B21280800A100030E8312A00070
:100060000610861006150430A6001E20A60B3528A3
:0E0070000B100611200E0308A10E210E090030
:02400E00D220BE
:02401000FF3E71
:00000001FF
