:020000040000FA
:020000000528D1
:040002000034003492
:0200080032289C
:06000A001420831603130D
:100010008601FF30850083120313860180308B0434
:10002000031020182C20112883160313193099006F
:10003000C03087042030980420308C0483120313CE
:100040009030980440308B040800831603139818EE
:100050002528831203130800201021089900252069
:1000600086000800A300030E8301A4000A08A5006F
:100070008A018C1E4C288C1298184528181949287A
:100080001A08A1002014A2014C28221418121816D4
:100090000800A2141A08080025088A00240E83000C
:0600A000A30E230E09006F
:02400E003A3F37
:00000001FF
