:020000040000FA
:020000000528D1
:040002000034003492
:0200080030289E
:06000A0083161F30860082
:100010008B01011381138312003086008B170B169E
:100020008613061386160230A4002220A40B15287E
:1000300019288613861206170230A4002220A40B6A
:100040001E281028FA30A200FA30FA30A30002303D
:10005000A500A50B2928A30B2728A20B25280800FB
:10006000A100030E8312A000061386128617043027
:10007000A6002220A60B39288B10200E0308A10E03
:04008000210E090044
:02400E00D220BE
:02401000FF3E71
:00000001FF
