:020000040000FA
:020000000528D1
:040002000034003492
:0200080031289D
:06000A0083160313013010
:100010008604BF308105831203138601FD308B05F2
:1000200090308B040230A000031086092020A00B22
:1000300016281528061520200800861520200800FF
:10004000FF30A1002620A10B222808007A30A20050
:100050002C20A20B282808006430A300A30B2E2814
:1000600008008B1834200900A400030E8301A500AA
:10007000061A3C2806163D280616250E8300A40EF7
:06008000240E8B100800A5
:02400E003A3F37
:00000001FF
