:020000040000FA
:020000000528D1
:040002000034003492
:020008006D2861
:06000A008316F0308500B2
:100010000130860053308100831207309F00A030EA
:100020008B00A401FF30A5000830A600A201A301A7
:100030001B203D201828241C2028061C0800241002
:1000400006183828A50B0800FF30A500A60B0800ED
:100050000830A6002414A3030A302306031D080059
:10006000A301A20A0A302206031D0800A20108000B
:10007000FF30A5000830A6000800A41C4228851EF9
:100080000800A410851A5C28A70B0800FF30A70001
:10009000A80B08000830A800A414A303FF3023060F
:1000A000031D08000930A300A203FF302206031D30
:1000B00008000930A2000800FF30A7000830A8009F
:1000C00008008207EE342834CD346D342B34673485
:1000D000E7342C34EF34AF34E334A100030EA00036
:1000E0000B1D83280B11851C7928851086010514AA
:1000F0008028051086018514220861208600832847
:10010000230861208600200E8300A10E210E090025
:02400E00193F58
:00000001FF
