:020000040000FA
:020000000528D1
:040002000034003492
:020008002028AE
:06000A0003139730810092
:1000100000308500F030860096000317860100301E
:10002000860005148514031383168713881303179A
:100030008316003089008B108B178B1500001E284B
:100040000B1C41288400030E8500060887008606E5
:10005000061A2D28861B32283628061A3628023022
:1000600085063628861B3B28013085064320060876
:1000700090390319362807088600050E0308840EF8
:10008000040E0B10090006308200820B4528080080
:10009000C83080008100810B4B28800B4A28080063
:02400E00D720B9
:02401000FF3E71
:00000001FF
