:020000040000FA
:020000000528D1
:040002000034003492
:0200080030289E
:06000A008312850107309E
:10001000990083169F0100308500FF239000D730A0
:100020008100831201308504FF3085056400810161
:10003000C8308B0420309604033085060A30A000B7
:100040002920A00B20281C285030A100A10B262815
:10005000080081010108FF3C2420031D2A28080014
:100060000B1C4328A300030EA400051D3F280A30E3
:10007000A200051D3F28A20B392810308506240E4A
:0A0080000308A30E230E0B10090065
:02400E00B43FBD
:00000001FF
