:020000040000FA
:02000000030AF1
:0400020000080008EA
:0A000600DF0C0200070C0600010CDD
:100010005109020C5109030C5109040C5109050C3A
:100020005109060C5109050C5109040C5109030C26
:100030005109020C5109070A020C3000310032004C
:10004000F002200AF102200AF202200A0008F3025C
:100050002E0AFC0C0600010C26000008F302350AEB
:10006000FC0C0600020C26000008F3023C0AF90C06
:100070000600020C26000008F302430AF90C0600F1
:10008000040C26000008F3024A0AFA0C0600010CD0
:1000900026000008F3020008FA0C0600040C2600F3
:0A00A0000008330027091C090008BE
:021FFE00EB0FE7
:00000001FF
