:020000040000FA
:020000000528D1
:040002000034003492
:020008000900ED
:06000A00831600308500A2
:100010008600831200308500860003178312871341
:1000200088138316003089003C203C2026203C2089
:100030002030B400642003307F206F2046203C2015
:10004000642001309A20772046202528851005114C
:10005000851137205320283053200E30532006308E
:10006000532014305320013053203C2008002A3004
:10007000B100B10B392808002930B2003720B20B8B
:100080003E28080085140000851008003C208510DB
:100090001030B3003408840000085320B30B5128FB
:1000A0000800840A4C28B6005E20860042203608EC
:1000B000360E5E208600422037200800F039B70057
:1000C00006080F39370408001030B10034088400E6
:1000D00020308000B10B6D280800840A6928851043
:1000E00005113C208030532005153C200800851068
:1000F00005113C20C030532005153C200800B500F8
:100100003408350784000030B50090200039031909
:100110008F288000840A3508013EB5008528080034
:1001200082074D3469346E34653473346F347434FB
:1001300061340034B5003408350784000030B50060
:10014000AB20FF390319AA288000840A3508013E34
:10015000B500A02808008207533474346134743425
:10016000653420344D3461346E346B34613474340E
:040170006F340034B4
:02400E00D520BB
:02401000FF3E71
:00000001FF
