:020000040000FA
:020000000528D1
:040002000034003492
:020008002C28A2
:06000A0083160313181118
:100010001812853081008C1680308B0000308800EB
:100020008600F030870083120313981718160814FF
:10003000881006158101831203178713881383160E
:100040000317003089008800871119309900831246
:100050000313F530A6002B28A2008312030EA30081
:100060000A08A4000408A500831203130B1D6628C8
:100070000B118101A60B3D2850208C1A8316831684
:1000800003138C1E6628831203139818602818190E
:1000900064281A08A0004930A002031955285828DE
:1000A00004308606F530A600080001308806662870
:1000B0005030A00203195D286628023088066628A1
:1000C0002114181218166628A1141A088312031393
:1000D0002508840024088A00230E0308A20E220E9D
:0200E000090015
:02400E00F72099
:02401000FF3E71
:00000001FF
