:040000008A11112828
:10000800FE00030E83120313A0000408A1000A08CF
:10001800A2007F08A3008A1154288A111328A4017A
:10002800A50183018A113F28031083120313061CBC
:100038000314031C2328831203130614262883128F
:10004800031306100310861C0314031C2F288312A5
:100058000313861432288312031386100310061D17
:100068000314031C3B28831203130615080083128C
:100078000313061108008A1174208A118A11692055
:100088008A1110308312031324062504031D452802
:100098008A1118208A1183120313A401A501452887
:1000A8008B1A0B1D5E280130A4070318A50A00301F
:1000B800A5070B112308FF0022088A0021088400E5
:1000C800200E8300FE0E7E0E090086308316031371
:1000D80081008B170B178B168312031381010800FD
:1000E8000730831603139C00860102308312031322
:0400F8008600080076
:02400E0072FF3F
:00000001FF
